:020000040800F2
:10000000E0BE0020A10100087F1C000811190008B3
:100010007D1C000859030008311D00080000000085
:10002000000000000000000000000000831C000829
:100030005B03000800000000811C0008851C00080C
:10004000BB010008BB010008BB010008BB010008A0
:10005000BB010008BB010008BB010008BB01000890
:10006000BB010008BB010008BB010008BB01000880
:10007000BB010008BB010008BB010008BB01000870
:10008000BB010008BB010008BB010008BB01000860
:10009000BB010008BB010008BB010008BB01000850
:1000A000BB010008BB010008BB010008BB01000840
:1000B000BB010008BB010008BB010008BB01000830
:1000C000BB010008BB010008BB010008BB01000820
:1000D000BB010008BB010008BB010008BB01000810
:1000E000BB010008BB010008BB010008BB01000800
:1000F000BB010008BB010008BB010008BB010008F0
:10010000BB010008BB010008BB010008BB010008DF
:10011000BB010008BB010008BB010008BB010008CF
:10012000BB010008BB010008BB010008BB010008BF
:10013000BB010008BB010008BB010008BB010008AF
:10014000BB010008BB010008BB010008BB0100089F
:10015000BB010008BB010008BB010008BB0100088F
:10016000BB010008BB010008BB010008BB0100087F
:10017000BB010008BB010008BB0100080000000033
:10018000BB010008BB010008DFF810D000F0D2F876
:10019000004800476D440008AFF30080E0BE002037
:1001A0000648804706480047FEE7FEE7FEE7FEE711
:1001B000FEE7FEE7FEE7FEE7FEE7FEE7211D00089B
:1001C000890100082DE9F05F0546002092469B4614
:1001D00088460646814640241BE02846414647465D
:1001E000224600F097F853465A46C01A914110D360
:1001F00011461846224600F07EF82D1A67EB0108DA
:100200004F4622460120002100F075F817EB000947
:100210004E41201EA4F10104DFDC484631462A4647
:100220004346BDE8F09F00000649074A086850436E
:1002300043F23902104408604008704701490860E1
:1002400070470000EC0000206D4EC64110B5431A07
:10025000934209D28318881803E010F8011D03F8AF
:10026000011D521EF9D210BD40EA01039B0703D0C5
:1002700009E008C9121F08C0042AFAD203E011F8E5
:10028000013B00F8013B521EF9D210BDD2B201E091
:1002900000F8012B491EFBD270470022F6E710B58B
:1002A00013460A4604461946FFF7F0FF204610BDE4
:1002B00030B504460020034600E05B1C934203D2A5
:1002C000E05CCD5C401BF8D030BD30B50B4601463C
:1002D00000202022012409E021FA02F59D4205D3E5
:1002E00003FA02F5491B04FA02F52844151EA2F18F
:1002F0000102F1DC30BD202A04DB203A00FA02F1D1
:10030000002070479140C2F1200320FA03F3194303
:1003100090407047202A04DB203A21FA02F00021A5
:10032000704721FA02F3D040C2F120029140084305
:1003300019467047064C074D06E0E06840F001039F
:1003400094E8070098471034AC42F6D3FFF720FF3B
:100350001CBB00083CBB0008FEE77047F0B500225C
:1003600000234FF000454FF48C46016902EB8204F4
:1003700001EBC4010B604B608B60CB600B624B6286
:100380000D604E604F6827F000474F6000EB82071A
:10039000B964032A07D24FF0280C07690CEBC40498
:1003A0003C44CC6001E00469CC60521C042ADCD3DC
:1003B000C36503668366C36683650169006800F5EB
:1003C0008050C160F0BD70B500220024C16802EB0E
:1003D000820301EBC3010C604C608C60CC6000EBCD
:1003E0008205A9610D6845F480150D60032A06D2C7
:1003F0002826C56806EBC3032B44CB6001E0C36825
:10040000CB600B6843F440030B60521C042ADDD31D
:100410008462C168006800F58050016170BD38B524
:100420000446206800F58050816941F480118161A3
:10043000206800F5805080690090012000F096FA55
:100440002068009900F58050816138BD107953799A
:1004500040EA03230748084403641178D37841EA4B
:100460000361937852781B0443EA022211434164EA
:10047000704700000080024070B5A4B00646012518
:100480008DF83C508DF83D5000240D948DF84B4074
:100490008DF84A508DF848408DF830508DF84C401A
:1004A0008DF83B4014948DF854401D948DF878409D
:1004B0001F948DF882408DF88040A8031090C010E2
:1004C00011908DF881400BA9304600F069F98DF844
:1004D0000C508DF80D508DF81D508DF80E50059470
:1004E0008DF81C408DF81E4008948DF824508DF82E
:1004F00004502804029080010690401204908DF868
:1005000025500A9400946946304600F0E9F824B07A
:1005100070BD0020704700F091BE000010B5024889
:1005200000F05EFC002010BDB84B002010B5134653
:100530000A460146044800F0D9FB10B14FF0FF30E5
:1005400010BD002010BD0000B84B002010B51346B0
:100550000A460146044800F055FD10B14FF0FF3047
:1005600010BD002010BD0000B84B00202DE9F04365
:1005700018300469254650F824308E684FF0000C7E
:100580001F68002F03DB00EB84077F6917B102208F
:10059000BDE8F0830127D6F80080C3F80880D3F8BF
:1005A0000480D6F804906FF30C0848EA0908C3F8F1
:1005B000048091F800805FEAC87809D0D3F8008001
:1005C000D1F8149028F4400848EA0908C3F80080DC
:1005D00091F800805FEA886809D5D3F80080D1F8E7
:1005E000109028F0406848EA0908C3F800800978AC
:1005F000490703D5196841F080011960196841F075
:1006000080511960BFF35F8F196841F00041196094
:1006100047E0196821F00051196022B1196841F0D2
:100620008041196003E0196821F080411960641C61
:10063000042C00D3241F50F82430196821F0805175
:1006400019601968002903DB00EB84014969A1B135
:1006500050F8252000210CE0BFF35F8F136823F0D2
:10066000004313606D1C042D00D32D1F50F825206E
:10067000491CB942F0D302208AE77F1CB668316872
:1006800099605968D6F804806FF30C0141EA0801BB
:1006900059600CF1010CBFF35F8F196841F0004104
:1006A0001960B1680029B4D122B1196841F08041C4
:1006B000196003E0196821F080411960196841F060
:1006C0000051196000EB8402416A5161046172B605
:1006D000816A0CF1010C6144816262B6002057E727
:1006E00070B505460C46286800F5805082692B4994
:1006F0000A40217B00294CD00021637B890641EA16
:100700004363617FE9B3002143EA0151A37B41EADE
:10071000435163691943237F41EAC311A37F41EA2F
:100720008311236A194394F8243041EA8301114369
:100730008161286800F580508669012000F016F973
:10074000286800F580508661A169A0682279084375
:10075000216941EA4261084394F8251040EAC1103A
:10076000A16A40EA81002168084340F4000128683A
:1007700000F580500160286800F580500468012071
:1007800000E008E000F0F2F8286800F5805004600E
:1007900070BD0121B1E70121B6E70000233FDEF87B
:1007A00070B505460C46286802683D490A40217C20
:1007B000A368002963D0002143EAC153617C00296A
:1007C0005FD00021E67F890541EA06410B4361695C
:1007D0000B43A17FF1B3002143EA4131237F41EA7A
:1007E0000331A3691943237941EA832394F8201044
:1007F00089B3002143EA4121E37B41EAC311636AE3
:10080000194394F8283041EA031111430160286824
:100810000668012000F0AAF8286806602868826946
:100820004FF641710A40A36C216D41EA034394F8ED
:100830004C1061B30021CE0194F85510012928D045
:10084000002146EAC1010B4394F85610012922D039
:10085000002101E017E018E043EA810394F8541006
:1008600001291AD0002143EA41011143816128681E
:100870008469012000F07AF82868846170BD012144
:100880009AE701219EE70121A6E70121B2E70121B4
:10089000D1E70121D5E70121DBE70121E3E70000F2
:1008A0000F8120FF2DE9F8430646002000904FF00D
:1008B0000108B56E06EB8500846CF76E1CE0206ABB
:1008C00030B9684600F042FA009870B32062A06028
:1008D000B8F1000F10D0B06D40B34FF48C406060A1
:1008E000206840F0004020606D1C042D00D32D1FB7
:1008F00006EB8500846C7F1E17B1B8F1000FDED1C6
:10090000F06EB8420FD0681C00F00300BFF35F8F99
:10091000316900EB800001EBC001306800F58050C8
:100920008160B566F766BDE8F88300E002E04FF04D
:100930000008CDE701486060D2E700000046008073
:1009400072B6FEE770B5054600F078FC064C2168EB
:10095000401A642807D300F071FC20602846BDE8E7
:10096000704002F0C7B970BD1C00002070B504468D
:1009700000F064FC0546601C02D004480078044482
:1009800000F05CFC401BA042FAD370BD3800002090
:1009900000296AD002681268C2F3001281F8282088
:1009A0000268126802F060024A620268126842F34A
:1009B0004022521C81F8202002681268C2F30042D3
:1009C000CA770268126842F34032521C8A77026882
:1009D0001268C2F300320A770268126802F40062F9
:1009E0008A610268126802F480424A6102681268F1
:1009F00042F38052521C4A740268126842F3C05299
:100A0000521C0A7402681268C2F3C012CA730268E8
:100A1000126802F460228A6002681268C2F38022BF
:100A20000A7102689269C2F3400281F85420026898
:100A3000926942F3C012521C81F84C2002689269FC
:100A400002F030020A6502689269120C8A64026838
:100A50009269C2F3800281F8562000688069C0F371
:100A6000C00081F855000020704701207047000049
:100A7000F8B50446002C03D0D4F8840010B107E088
:100A80000120F8BD2320C4F88400204600F04CF873
:100A900000272348016841F480410160006800F4A8
:100AA000804000901F48016821F400010160016846
:100AB000A268114301600068206800F58050016859
:100AC00041F00101016000F0B9FB05464FF4FA76F0
:100AD0000BE000F0B3FB401BB04206D90420843485
:100AE0006060E02020600120F8BD206800F58050A3
:100AF0000068C007EDD12046FFF7BEFC2046FFF797
:100B000062FC2046FFF72AFC002120466268FFF7BE
:100B10009DFC84346760102020600020F8BD000038
:100B20004438024004380140F0B587B0044614212F
:100B300002A8FFF7B2FB2D492068884253D1002458
:100B40002B48016841F000710160016801F00071FB
:100B50000191016841F080610160016801F08061EC
:100B60000191016841F000610160016801F00061DC
:100B70000191016841F004010160016801F0040184
:100B80000191016841F001010160016801F001017A
:100B90000191016841F040010160006800F04000EF
:100BA00001903220029002250395049403260596B5
:100BB0000B27069702A90F4800F050FA8E200290EA
:100BC000039504940596069702A90B4800F046FA8F
:100BD0004FF4D0400290039504940596069702A91D
:100BE000064800F03BFA07B0F0BD0000008002406C
:100BF0003038024000080240000002400018024065
:100C00002DE9F35F04460027B9460198002806D075
:100C1000D4F88400232809D00120BDE8FC9F54F8B3
:100C2000880F40F0010020600120F6E7E66D04EB3C
:100C30008600856CE06EC0F1040B4FF0000A39E0CD
:100C40002868C00503D5E869A067A86960672868B7
:100C5000800501D4E06F28B32868800503D5C4F867
:100C600060A0C4F864A0D4F814802868C00508D532
:100C70002868C0F30D48A8F10408286820674FF0E1
:100C80000109AA682A6204F180011FFA88F3081F8B
:100C900000F080F8206E401C2066606E4044606664
:100CA000C5F820A0761C042E00D3361F04EB860066
:100CB000856C7F1C2868002804DB5F4502D2B9F1EF
:100CC000000FBDD0E06E3844E06610B12046FFF75B
:100CD000E9FDE665B9F1010F01D001209DE701981A
:100CE000E16F0160C4F87CA0002096E72DE9F04197
:100CF000054698462868036903F01C034FF6FF7405
:100D000004EAC12119434FF4F86303EA82120A434B
:100D100022F0020141F00104046100F08FFA06465E
:100D20004FF4803709E000F089FA801BB84202D303
:100D30000120BDE8F08128680469E007F3D1286844
:100D4000406980B2C8F800000020F2E71CB50446F4
:100D50000D4803F0D3FF03467BB103F12000206070
:100D60000A4818614FF4C0612068CDE900010021F4
:100D70004122084604F082FD1CBD0549012008708F
:100D8000002020601CBD0000E0B80008095F0008DA
:100D90000000002010B5203A002414601481538113
:100DA0000468002C04D00C6822600A60006805E02A
:100DB0000260FAE701891944018100680028F9D12D
:100DC00010BD10B5002905D0D0F88420102A03D01A
:100DD000012010BD012010BDFFF7E2FC002010BD76
:100DE00070B505462868006920F01C0400F060FB1F
:100DF0001049114A0144914202D244F0080416E01D
:100E00000E490F4A0144914202D244F00C040EE014
:100E10000C490D4A0144914209D30C4908440C493C
:100E2000884202D244F0040401E044F0100428682F
:100E3000046170BD00D3CEFEC0E1E40040F1E9FDE5
:100E400040787D0100796CFC005A6202001F0AFAAA
:100E500080F0FA0270B50446D4F88400102801D05E
:100E6000012070BD2326C4F884600420E06620467B
:100E7000FFF718FD2068016841F008010160206853
:100E800005680120FFF772FD206805602068016891
:100E900041F004010160206805680120FFF766FD4C
:100EA000206805602046FFF7BAFA206800F58050F8
:100EB000816941F400518161206800F580508169A9
:100EC00041F002018161C4F88460002070BD70B5FA
:100ED0000446D4F88400232801D0012070BD2320CB
:100EE000C4F88400206800F58050816921F4005125
:100EF0008161206800F58050816921F002018161E3
:100F00002068016821F00401016020680568012063
:100F1000FFF72CFD206805602046FFF780FA206867
:100F2000016821F008010160206805680120FFF7D1
:100F30001DFD206805601020C4F88400002070BDED
:100F40002DE9F04104461546002906D0D4F8840066
:100F5000232809D00120BDE8F08154F8880F40F023
:100F6000010020600120F6E700222046FFF7FEFA8C
:100F700030B154F8880F40F0020020600120EAE709
:100F8000BFF34F8FA06A04EB80018E69401CA06202
:100F9000042801D3001FA062A06A04EB80008169CD
:100FA000206800F58050416000F048F907461AE0DB
:100FB000206800F58050406980040CD554F8880FF3
:100FC00040F00800206054F8880C00F5805040691B
:100FD00060600120BFE7681C05D000F02FF9C01B3E
:100FE000A84205D825B130680028E1DB0020B2E72F
:100FF00054F8880F40F0040020604FF040503060FB
:101000000120A8E72DE9F04105462868046904F0AD
:101010001C044FF6FF7606EAC12121434FF4F86421
:1010200004EA82120A4342F0020141F0010499B23B
:1010300041612868046100F001F906464FF48037E9
:1010400009E000F0FBF8801BB84202D30120BDE8A4
:10105000F08128680469E007F3D1F8E72DE9F84F3B
:101060000022DFF89C914FF0010803274FF00F0C8E
:1010700009F1040AA9F1040B08FA02F50B682B40E8
:10108000AB426ED10C7904F00304012C01D0022C88
:1010900015D18668540007FA04FE26EA0E06D1F838
:1010A0000CE00EFA04FE4EEA060EC0F808E04468B2
:1010B000AC430D79C5F300159540254345600C7987
:1010C000E443A40708D0C568540007FA04F6B54302
:1010D0008E68A6402E43C6600C7904F00304022CEF
:1010E00011D1D40800EB8406356A5407E40E0CFADB
:1010F00004FE25EA0E05D1F810E00EFA04FE4EEAD1
:10110000050EC6F820E00568540007FA04F6B5435A
:101110000E7906F00306A6402E4306604C6814F4D0
:10112000403F67D0374C256845F4804525602468EA
:1011300004F480440094344C22F003052E19D6F8B0
:10114000085894074FEA147E0CFA0EF4A5432F4C6E
:10115000A04201D1002424E02D4CA04202D1012460
:101160001FE047E02B4CA04201D1022419E02A4C99
:10117000A04201D1032414E0284CA04201D1042450
:101180000FE0274CA04201D105240AE0254CA042E3
:1011900001D1062405E0244CA04201D1072400E03F
:1011A000082404FA0EF42C43C6F80848D9F8004085
:1011B0009C434D68ED0200D51C43C9F80040DAF8A5
:1011C00000409C434D68AD0200D51C43CAF8004066
:1011D000DBF800409C434D68AD0300D51C43CBF8C1
:1011E0000040074D083D2C689C434E68F60300D52F
:1011F0001C432C60521C102AFFF43EAFBDE8F88F50
:10120000083C0140443802400030014000000240E8
:101210000004024000080240000C0240001002409E
:101220000014024000180240001C0240002A01D0B5
:10123000816170470904816170470000014880683E
:10124000704700003800002002488168027811448D
:10125000816070473800002010B50B48016841F4E8
:1012600000710160016841F480610160016841F42E
:1012700080710160032000F063F80F2000F006F891
:1012800000F026F8002010BD003C024070B5044676
:101290000D4D4FF47A712878B1FBF0F00B490968D5
:1012A000B1FBF0F000F020FB08B1012070BD102C64
:1012B00007D200222146501E00F022F86C60002068
:1012C00070BD012070BD00003800002044000020E7
:1012D00008B50A48016841F480410160006800F4E3
:1012E000804000900548001F016841F08051016076
:1012F000006800F08050009008BD000044380240B3
:10130000F0B40D460D4B1B68C3F30223C3F1070471
:10131000042C00D90424191D072901D2002300E060
:10132000DB1E012606FA04F1491E294099409E4021
:10133000761E16403143F0BC00F00CBD0CED00E011
:1013400000F00701054A10684FF6FF03184040EA15
:101350000120034908431060704700000CED00E0D5
:101360000000FA052DE9F04704460D46002C13D085
:10137000DFF82891D9F80000EFB200F00700A8428A
:101380000CD289F80070D9F8000000F00700A842DC
:1013900004D00120BDE8F0870120FBE72068404E23
:1013A000810712D5400703D5306840F4E050306023
:1013B0002078000703D5306840F460403060306822
:1013C000A16820F0F000084330602078C00731D0D9
:1013D000334960680839012808D002280BD0032857
:1013E00009D0096889070BD40120D3E7096889036C
:1013F00006D40120CEE70968890101D40120C9E79C
:10140000316821F0030101433160FFF717FF804687
:1014100041F2883A07E0FFF711FFA0EB08005045C2
:1014200001D90320B6E73068616800F00C00B0EB2A
:10143000810FF0D1D9F8000000F00700A84209D9C7
:1014400089F80070D9F8000000F00700A84201D028
:1014500001209FE72078400705D53068E16820F437
:10146000E050084330602078000706D530682169D5
:1014700020F4604040EAC100306000F01FF831689D
:10148000084AC1F30311515CC84007490860074886
:101490000068FFF7FBFE00207CE70000003C0240F4
:1014A00008380240ECB80008440000203C0000204E
:1014B00001480068704700004400002010B517483C
:1014C000006810F00C01164816D0164B042912D0F3
:1014D000082911D1114C241F216801F03F02216815
:1014E00049020AD52068C0F38810A0FB030100233D
:1014F000FEF768FE09E0184610BD21680023C1F31D
:101500008811A1FB0001FEF75DFE2168C1F30141D6
:10151000491C4900B0FBF1F010BD00000838024042
:101520000024F40040787D012DE9F84F0446002C9A
:1015300013D02078DFF8A083C007A8F1040556D0A7
:1015400008F104000168C1F3810101290CD0006891
:10155000C0F38100022803D00DE00120BDE8F88F20
:10156000D8F80000400206D5286880033FD560689F
:1015700070BB0120F2E76068B0F5803F10D0B0F595
:10158000A02F12D0286820F480302860286820F42A
:10159000802028606068E0B1FFF750FE064614E046
:1015A000286840F480302860F4E7286840F4802000
:1015B0002860286840F480302860EBE7FFF73EFEA3
:1015C000801B642801D90320C8E728688003F5D56B
:1015D0000DE0FFF733FE064606E0FFF72FFE801B07
:1015E000642801D90320B9E728688003F5D420785E
:1015F000BA4F80074FF0000948D5B748001D016871
:1016000011F00C0F08D00068C0F38100022813D13C
:10161000D8F8000040020FD42868800704D5E0689D
:10162000012801D0012099E72868216920F0F800FD
:1016300040EAC100286029E0E068B8B101203860C4
:10164000FFF7FCFD064606E0FFF7F8FD801B0228C9
:1016500001D9032082E728688007F5D52868216929
:1016600020F0F80040EAC10028600FE0C7F80090C1
:10167000FFF7E4FD064606E0FFF7E0FD801B0228C9
:1016800001D903206AE728688007F5D4207800078D
:1016900029D5DFF844A2924861690AF1700A89B13C
:1016A00001210160FFF7CAFD064606E0FFF7C6FD0F
:1016B000801B022801D9032050E7DAF800008007D8
:1016C000F4D510E0C0F80090FFF7B8FD064606E03C
:1016D000FFF7B4FD801B022801D903203EE7DAF8AA
:1016E00000008007F4D42078400778D54FF0000A36
:1016F00079483C300068C0000BD477483C30016822
:1017000041F080510160006800F0805000904FF07F
:10171000010ADFF8D0B1DBF80000C00514D4DBF813
:10172000000040F48070CBF80000FFF787FD06460C
:1017300006E0FFF783FD801B022801D903200DE797
:10174000DBF80000C005F4D5634EA0686C360128B4
:101750000FD0052812D0306820F0010030603068CA
:1017600020F004003060A068F8B1FFF767FD834601
:1017700017E0306840F001003060F4E7306840F076
:1017800004003060306840F001003060EBE7FFF7A4
:1017900055FDA0EB0B0141F28830814201D90320B5
:1017A000DCE630688007F2D510E0FFF747FD83469E
:1017B00009E0FFF743FDA0EB0B0141F288308142C5
:1017C00001D90320CAE630688007F2D4BAF1010FCC
:1017D00005D141483C30016821F080510160A06989
:1017E000C0B33D49091D09684FF0FF36C1F38101BF
:1017F000022946D0022805D0C7F86090FFF71EFDE9
:1018000004463AE0C7F86090FFF718FD814607E00C
:10181000FFF714FDA0EB0900022801D903209DE683
:1018200028688001F4D4D4E907010843616AA26AF8
:10183000890106EB520241EA0241084394F82C1058
:1018400040EA0160C8F8000001203866FFF7F6FCA6
:10185000044607E03DE0FFF7F1FC001B022801D938
:1018600003207BE628688001F5D532E0FFF7E6FC2F
:10187000001B022801D9032070E628688001F5D4F6
:1018800027E0012823D0D8F80000E26900F48001A5
:1018900091421AD1226A00F03F01914215D147F6D8
:1018A000C071626A0140B1EB821F0ED1A26A00F4DE
:1018B000403106EB5202B1EB024F06D194F82C10E6
:1018C00000F07060B0EB016F03D0012046E601200C
:1018D00044E6002042E6000004380240000047428F
:1018E000800E47420070004010B5401EB0F1807F6E
:1018F00001D3012010BD4FF0E02460610F2160177B
:1019000000F028FA0020A06107202061002010BD0F
:10191000FEE738B504460020009063696A4601215D
:10192000206898476FF00405002801DA284638BD82
:1019300063696A46012120689847002801DA284631
:1019400038BD0098400701D4012038BD63696A465C
:10195000002120689847002801DA284638BD009801
:10196000C1040FD44FF40451814303D0810403D543
:10197000032038BD022038BDC00501D5042038BD84
:10198000052038BD63696A461F21206898470028F2
:1019900001DA284638BD0098C10401D4062038BDBC
:1019A000C0F38200062805D0022805D0052805D0FE
:1019B000052038BD022038BD032038BD042038BDC5
:1019C0002DE9F843044600200090002600256068B9
:1019D00000284DD1A06800B18047202020606FF022
:1019E000040763696A46122130469847002801DAE5
:1019F0003D4607E0009800F01F00B04202D126608B
:101A0000002502E0761C1F2EEBD920681F2801D983
:101A10006FF0020505BB23694FF40042002198478F
:101A2000002823DB63696A46002120689847002864
:101A30001ADBA069804706464FF4FA7810E0A069E7
:101A40008047801B404508D863696A4600212068AA
:101A50009847002804DA3D460AE06FF0010507E0E8
:101A600000980004EBD403E03D4601E06FF003056D
:101A70005DB9A069804706464FF4FA67A0698047C0
:101A8000801BB842FAD9012060602846BDE8F8837F
:101A9000002811D0CA687AB18A686AB10A695AB155
:101AA0000A6882604A68C260CA6842618A680261E4
:101AB00009698161002070474FF0FF3070470000D6
:101AC00070B586B0142101A8FEF7E7FB00251A487F
:101AD000016841F004010160016801F00401009116
:101AE000016841F080010160016801F0800100910E
:101AF000016841F001010160016801F001010091FC
:101B0000016841F040010160006800F04000009071
:101B10000A4E4FF40054002221463046FFF786FB60
:101B20000194012102910395049501A93046FFF724
:101B300095FA06B070BD000030380240000802403F
:101B4000FEB5424EC0223270A82373700120B070DF
:101B50006621F170FF21341D21706170A170002792
:101B6000E770251D2A706B70A870E87002F06FFC9A
:101B70007278F0783178B3784FEA024C40EA01602D
:101B80004CEA032630430606090641EA024141EACF
:101B9000032292B246EA022201F47F0142EA1121B5
:101BA00041EA1060A4F1100108606278E0782178C1
:101BB000A378160440EA016046EA032420430406A1
:101BC000090641EA024141EA032292B244EA0222B2
:101BD00001F47F0142EA112141EA1060A5F11001F0
:101BE00008606A78E8782978AB78140440EA0160E4
:101BF00044EA032420430406090641EA024141EA7B
:101C0000032292B244EA022201F47F0142EA112146
:101C100041EA1060A5F10C0108600E490C48CDE9BD
:101C20000071A5F10C031A1F0290111F0A4803F05E
:101C3000AFF8094803F0D6FA074803F0E9FB03B010
:101C40000649BDE8F040044803F026BB2C00002004
:101C50004D2C0008992E0008C04C0020A12D000832
:101C600010B5054801F060F904F0B4FBBDE8104080
:101C70000148FEF767BE0000C04C0020FEE7FEE70B
:101C800070477047FFF7E0BA30B593B0302107A82E
:101C9000FEF703FB142102A8FEF7FFFA00251E48F9
:101CA000016841F080510160006800F080500190AF
:101CB0001A48016841F480410160006800F48040E6
:101CC0000190012007900004089002240D948001E7
:101CD0000E9019200F904FF4A870109011940420CA
:101CE000129007A8FFF720FC08B1FEF729FE0F208D
:101CF0000290039404954FF4A05005904FF4805047
:101D00000690052102A8FFF72DFB002801D0FEF761
:101D100017FE13B030BD0000403802400070004094
:101D20000248016841F470010160704788ED00E0ED
:101D3000FEE700000FB4054B10B503A9044A029852
:101D400000F028F810BC5DF814FB00004D2F0008CF
:101D5000F00000200907090E002804DB00F1E02054
:101D600080F80014704700F00F0000F1E02080F8C8
:101D7000141D704702E008C8121F08C1002AFAD1DA
:101D800070477047002001E001C1121F002AFBD1FB
:101D9000704700002DE9FF4F8BB09A460F4605466D
:101DA000002606E025280BD052460D9990476D1C61
:101DB000761C28780028F5D10FB03046BDE8F08FAA
:101DC0000024A0460122604900E0044315F8013FC9
:101DD000203B02FA03F00842F7D128782E2817D1C9
:101DE00015F8010F44F004042A280ED06FF02F02DA
:101DF0002878A0F1300109290AD808EB880102EB04
:101E0000410100EB01086D1CF2E757F8048B6D1CD3
:101E1000287869283ED006DC0028CDD063280BD076
:101E2000642804D136E0732810D075284BD0524670
:101E30000D999047761C85E017F8040B8DF800008B
:101E400000208DF80100E946012003E057F8049BCB
:101E50004FF0FF3061074FF0000401D40AE0641C2A
:101E600044450DDA8442FADB19F804100029F6D152
:101E700006E0641C8442FCDB19F804100029F8D148
:101E8000264404E019F8010B52460D999047641E50
:101E9000F8D257E001CF4FF00A0B002802DA404297
:101EA0002D2102E0210504D52B218DF824100121DC
:101EB00003E0E10705D02021F7E70DF120090891A3
:101EC0000CE00021F9E701CF4FF00A0BF9E7594682
:101ED000FEF7FBF901F1300209F8012D0028F6D1D7
:101EE000ADEB090000F1200B600701D44FF00108B1
:101EF000D84502DDA8EB0B0000E00020804600245E
:101F000006E009A85246005D0D999047641C761CB6
:101F100008988442F5DB04E0302052460D99904742
:101F2000761CB8F10001A8F10108F5DC05E019F80C
:101F3000010B52460D999047761CBBF10001ABF1A5
:101F4000010BF4DC6D1C34E70928010070B505466F
:101F50000C46A00706D006A34FF4B67210A118A035
:101F6000FFF7E8FEA86800682060A868046070BDFC
:101F70002E2E2F4D6964646C6577617265732F54E2
:101F8000686972645F50617274792F4C7749502F81
:101F90007372632F636F72652F6D656D702E6300B2
:101FA0006D656D705F667265653A206D656D207058
:101FB000726F7065726C7920616C69676E65640020
:101FC000417373657274696F6E20222573222066D7
:101FD00061696C6564206174206C696E652025649C
:101FE00020696E2025730A0010B580680468002CF3
:101FF0000CD021680160A00706D005A34FF48C72B5
:102000000FA118A0FFF796FE204610BD002010BDBE
:102010002E2E2F4D6964646C6577617265732F5441
:10202000686972645F50617274792F4C7749502FE0
:102030007372632F636F72652F6D656D702E630011
:102040006D656D705F6D616C6C6F633A206D656D71
:10205000702070726F7065726C7920616C69676E48
:1020600065640000417373657274696F6E20222588
:102070007322206661696C6564206174206C696EEE
:102080006520256420696E2025730A0070B5054619
:102090000024084E04EB440006EBC000017D29B18A
:1020A0008068A84202D1204600F03CF9641C0A2C4A
:1020B000F0DB70BDF07D00202DE9F74F84B0804645
:1020C0004FF00A0AD1460A270024BB46002002909E
:1020D00001900090544904EB440001EBC0060390CA
:1020E000357D0A2F01D1002D1ED0002D28D0012DC5
:1020F00008D0022D06D24DA340F2231259A169A0A7
:10210000FFF718FEB8F1000F10D0D8F80000716882
:1021100088420BD1069818B1B1680698814205D162
:10212000204607B0BDE8F08F274609E0012D13D007
:10213000022D05D3708A0099884201D3A1460090F0
:10214000641C24B20A2CC5DB05984FF0FF318007D0
:102150001CD40A2F13D015E03348039950F83100EE
:1021600030B1708A02998842EAD3A3460290E7E729
:10217000708A01998842E3D3A2460190E0E705986E
:10218000C00703D00A2F03DA3C4628E00846C8E718
:10219000B9F10A0F0EDA4C46234804EB440150F81B
:1021A000310080B121A340F26D1248A13DA0FFF79C
:1021B000C1FD08E0BAF10A0F01DA544603E0BBF1B1
:1021C0000A0F2FDA5C460A2C06DB18A340F27F12B6
:1021D00044A134A0FFF7AEFD204600F0A3F80A2C7E
:1021E00006DB12A340F283123EA12EA0FFF7A2FD50
:1021F0000D4804EB440100EBC105287D30B10BA371
:102200004FF4C2723CA127A0FFF794FDB8F1000F74
:1022100002D0D8F800006860002068820698A860A4
:1022200020467EE708467CE7F07D00202E2E2F4DCD
:102230006964646C6577617265732F546869726450
:102240005F50617274792F4C7749502F7372632FEE
:10225000636F72652F697076342F65746861727070
:102260002E6300007374617465203D3D2045544821
:102270004152505F53544154455F50454E44494E7E
:1022800047207C7C207374617465203E3D2045545A
:10229000484152505F53544154455F535441424C5E
:1022A00045000000417373657274696F6E202225CA
:1022B0007322206661696C6564206174206C696EAC
:1022C0006520256420696E2025730A006172705FA5
:1022D0007461626C655B695D2E71203D3D204E55D9
:1022E0004C4C000069203C204152505F5441424C0C
:1022F000455F53495A4500006172705F7461626CBA
:10230000655B695D2E7374617465203D3D204554A5
:10231000484152505F53544154455F454D505459C4
:102320000000000070B5084D00EB4004002655F891
:102330003400002803D003F039FD45F8346005EB84
:10234000C400067570BD0000F07D00202DE9F0434B
:1023500087B007460D46002D09D07C684FF4807881
:102360002088404513D12079062810D109E021A307
:1023700040F28A222DA131A0FFF7DCFC07B0BDE8B6
:10238000F0836079042802D16088082803D0384699
:1023900003F00CFDF2E7D4F80E000690A06905905A
:1023A000696819B1884203D1012602E0002600E0E5
:1023B00000260EB1012300E0022304F10802914639
:1023C00006A9284600F0B4FBE08840450ED16EB166
:1023D00006AACDE901920221281D05F126030391E9
:1023E000009019464A46284600F0A2FA384603F003
:1023F000DDFCC3E72E2E2F4D6964646C6577617236
:1024000065732F54686972645F50617274792F4CE0
:102410007749502F7372632F636F72652F697076DF
:10242000342F6574686172702E6300006E65746984
:102430006620213D204E554C4C00000041737365D1
:102440007274696F6E2022257322206661696C6543
:1024500064206174206C696E6520256420696E209B
:1024600025730A00FEB504460E461546002C06D11B
:1024700045A340F21E3252A155A0FFF75BFC36B9CE
:1024800041A340F21F325CA151A0FFF753FC28008A
:1024900006D13DA34FF448725AA14DA0FFF74AFC64
:1024A0002146286800F0F4FE08B15A4B3FE0286846
:1024B000C0F303110E2925D0A168636800EA010268
:1024C0000B409A4208D080B2A0F57E41A93903D0D2
:1024D000E068B0B304F10C054F4B50491A7802EB99
:1024E000420001EBC000077D022F2ED38768A74270
:1024F0002BD12F684068874227D13146204600F013
:102500008FF8FEBD01208DF8040000208DF8050035
:102510005E208DF80600687800F07F008DF80700D7
:10252000A8788DF80800E8788DF8090001AB4FF421
:102530000060009004F126023146204600F032FC93
:10254000FEBDFFE76FF00300FAE7002202EB420056
:1025500001EBC000077D022F0CD38768A74209D189
:102560002F684068874205D11A703146204600F036
:1025700057F8E5E7521CD2B20A2AE7D33246294679
:10258000204600F0D9F8DBE72E2E2F4D6964646CED
:102590006577617265732F54686972645F50617208
:1025A00074792F4C7749502F7372632F636F726564
:1025B0002F697076342F6574686172702E63000025
:1025C0006E6574696620213D204E554C4C0000001C
:1025D000417373657274696F6E20222573222066C1
:1025E00061696C6564206174206C696E6520256486
:1025F00020696E2025730A007120213D204E554C24
:102600004C00000069706164647220213D204E55C9
:102610004C4C0000FCB80008E0000020F07D0020D9
:102620002DE9F84306460F4615461E4805EB4501C1
:1026300000EBC104207D022806D21BA340F2EE224B
:1026400027A133A0FFF776FB164A05EB4501207D55
:1026500002EBC1050C35022818D1618A4FF003083E
:10266000B1F58E7F07D9211D304600F01BFA68B9FD
:1026700084F814800AE0B1F5877F07D32A46211D2C
:10268000304600F015FA08B984F814804FF4006061
:1026900000902B4606F126023946304600F082FBB8
:1026A000BDE8F883F07D00202E2E2F4D6964646C08
:1026B0006577617265732F54686972645F506172E7
:1026C00074792F4C7749502F7372632F636F726543
:1026D0002F697076342F6574686172702E63000004
:1026E0006172705F7461626C655B6172705F696476
:1026F000785D2E7374617465203E3D2045544841D9
:1027000052505F53544154455F535441424C45002D
:10271000417373657274696F6E202225732220667F
:1027200061696C6564206174206C696E6520256444
:1027300020696E2025730A002DE9FC5F82460F4652
:1027400016460AF1260001904FF0FF344FF00008C2
:102750005146386800F09CFD88B93868C0F3031111
:102760000E290CD05FB150B1524601213846FFF717
:10277000A3FC0546002D05DA68B2BDE8FC9F6FF0AA
:102780000F00FAE77F2D06D33AA340F2C13247A1EA
:102790004AA0FFF7CFFA05F0FF0B52480BEB4B09AD
:1027A00000EBC905297D29B94FF0010801212975E0
:1027B000C5F808A0287D012808D0022806D22DA33C
:1027C00040F2CD3248A13DA0FFF7B4FAB8F1000FB6
:1027D00000D12EB93946504600F064F9044696B14E
:1027E000287D404F022810D3494880F800B04FF4AC
:1027F0000060009005F10C0331465046019A00F04C
:10280000D1FA044634E02046B7E7012830D100254C
:10281000344640F2F13811E060892189884207D1BD
:10282000206828B113A342463AA124A0FFF782FAF8
:10283000207B400601D5012502E02468002CEBD165
:102840003DB132464FF420710E2003F0D7F8064612
:1028500002E0304603F032FC46B157F8390008B1C7
:1028600003F0A4FA47F83960002401E04FF0FF3488
:10287000204682E72E2E2F4D6964646C6577617265
:1028800065732F54686972645F50617274792F4C5C
:102890007749502F7372632F636F72652F6970765B
:1028A000342F6574686172702E63000074797065EE
:1028B000206F766572666C6F7700000041737365F8
:1028C0007274696F6E2022257322206661696C65BF
:1028D00064206174206C696E6520256420696E2017
:1028E00025730A00F07D00206172705F7461626C74
:1028F000655B695D2E7374617465203D3D205045B4
:102900004E44494E47206F7220535441424C45007B
:10291000E00000206E6F207061636B65742071753C
:102920006575657320616C6C6F77656421000000CC
:102930002DE9FF4F81B00646DDE90FABDDF8389099
:102940001F464FF00008002E06D12CA340F257423C
:1029500038A13CA0FFF7EEF94FF420721C210E20A5
:1029600002F014FE0546280044D068891C2806D2CF
:1029700022A340F262423DA132A0FFF7DBF96C686E
:10298000119801F05FFDE08096F82C00062806D033
:102990001AA340F2694242492AA0FFF7CBF93868EE
:1029A000A060B888A081DAF80000C4F81200BAF874
:1029B0000400E082D9F80000C4F80E00DBF8000043
:1029C000A0614FF480702080082060800620207174
:1029D0000420607140F60600DDE9022300902946DC
:1029E000304600F0DFF9284603F0E0F9404605B034
:1029F000BDE8F08F4FF0FF30F9E700002E2E2F4D8D
:102A00006964646C6577617265732F546869726478
:102A10005F50617274792F4C7749502F7372632F16
:102A2000636F72652F697076342F65746861727098
:102A30002E6300006E6574696620213D204E554C62
:102A40004C000000417373657274696F6E2022251B
:102A50007322206661696C6564206174206C696E04
:102A60006520256420696E2025730A00636865630C
:102A70006B2074686174206669727374207062756B
:102A8000662063616E20686F6C6420737472756376
:102A900074206574686172705F6864720000000081
:102AA000D8BA0008014A00F003B80000FCB80008DA
:102AB0007FB5064D031D0124CDE90035CDE9021493
:102AC00022331946FFF734FF04B070BD02B9000885
:102AD00070B50024154D04EB440005EBC002117DD8
:102AE000F9B1508A401C80B25082B0F5967F03D273
:102AF000012905D1052803D32046FFF713FC10E078
:102B0000032904D0042905D0012906D009E00420B6
:102B1000107506E00220107503E0111D9068FFF7A4
:102B2000C1FF641C0A2CD6DB70BD0000F07D0020C4
:102B3000F8B504460D4616461F4694F82C000628A4
:102B400006D020A340F2A9122CA135A0FFF7F2F87D
:102B50009DB1286888B1214600F09AFB68B92878B1
:102B6000C0F303100E2808D0224639462846FFF746
:102B7000A3FA002804DA40B2F8BD6FF00F00F8BDE8
:102B8000314A00EB400102EBC1000223037584606F
:102B90003368C360B38803820023438252F8315004
:102BA00075B142F831304FF400600090334604F1C3
:102BB00026022946204600F0F5F8284603F0F6F8EC
:102BC0000020F8BD2E2E2F4D6964646C657761720C
:102BD00065732F54686972645F50617274792F4C09
:102BE0007749502F7372632F636F72652F69707608
:102BF000342F6574686172702E6300006E657469AD
:102C0000662D3E6877616464725F6C656E203D3D41
:102C1000204554485F4857414444525F4C454E005C
:102C2000417373657274696F6E202225732220666A
:102C300061696C6564206174206C696E652025642F
:102C400020696E2025730A00F07D00202DE9F041F7
:102C500004460D460E2760890E283DD9E07B18B941
:102C600095F83000401CE073606886890178CA07D7
:102C700015D0012905D006221D49FDF719FB50B1D9
:102C80000DE0417859B980785E2808D1607B40F02A
:102C90001000607303E0607B40F008006073082E52
:102CA00003D0B6F5C16F17D10DE095F82D000007E0
:102CB00012D53946204603F047FA68B9294620461E
:102CC00000F040FC12E095F82D00000704D53946CD
:102CD000204603F039FA28B1204603F067F80020B7
:102CE000BDE8F08129462046FFF730FB0020F7E7DA
:102CF000FCB80008F0B599B0074664216846FDF7B6
:102D0000CCFA0024002500262448FEF702FE97F89E
:102D10002D104A070DD501280BDC2048E838FEF7B6
:102D2000D6F8384602F064FA384602F0B9FA19B01B
:102D3000F0BD4907FBD40128F9DD4FF40062D10052
:102D4000022806D0032808D0042809D005280BD172
:102D500009E016460D46012406E00D46012403E075
:102D60001646012400E00124002CE0D00B486946FF
:102D7000E838FDF70DFE0696059508486946E838DF
:102D8000FEF71FF80548E838FEF764F8384602F009
:102D90003FFB384602F0DAFAC9E70000A04C0020F9
:102DA000704700002DE9F04106460F4615461C46C7
:102DB000069801F047FB80460E21384602F07AFB68
:102DC00018B16FF00100BDE8F0817868A0F80C80C0
:102DD00021680160A18881802968C0F80610A9884F
:102DE000418196F82C00062806D006A34FF499726C
:102DF00012A11FA0FEF79EFF39463046B269BDE81A
:102E0000F04110472E2E2F4D6964646C6577617216
:102E100065732F54686972645F50617274792F4CC6
:102E20007749502F7372632F6E657469662F6574CE
:102E30006865726E65742E63000000006E657469CB
:102E4000662D3E6877616464725F6C656E206D7597
:102E50007374206265203620666F72206574686521
:102E6000726E65745F6F7574707574210000000078
:102E7000417373657274696F6E2022257322206618
:102E800061696C6564206174206C696E65202564DD
:102E900020696E2025730A0010B50446002C06D167
:102EA0000AA340F26F1210A113A0FEF743FF732094
:102EB00084F82E00742084F82F00194860611948A6
:102EC000A061204601F0CEF9002010BD2E2E2F4C1F
:102ED0005749502F5461726765742F657468657225
:102EE0006E657469662E63006E6574696620213DA7
:102EF000204E554C4C000000417373657274696F2D
:102F00006E2022257322206661696C6564206174DD
:102F1000206C696E6520256420696E2025730A0087
:102F2000652400087543000870B50546284601F081
:102F30000FFA04463CB12A6929462046904710B151
:102F4000204602F033FF002CF0D170BD38B50446A6
:102F50008DF8000069460320ABBE204638BD0A4606
:102F6000032100F009B900002DE9FE4F0446884610
:102F70004D4FD7F808A09AF800000007860E142ECF
:102F80007ED360890428FBD360680178002978D05B
:102F900008297FD107F114097869C0F303110E29BC
:102FA00054D0396800F074F900284FD120890828DE
:102FB00075D306F10E010D46204602F07BFA00287B
:102FC00038D02089811989B288423FD84FF42072C5
:102FD0000E2002F0DBFA0546002D37D0698906F194
:102FE0000800814203D2284602F0E0FE2EE032467D
:102FF00051466868FDF72AF93146284603F0A4F8DF
:10300000002809D029A3B62236A144A0FEF792FEDB
:10301000284602F0CBFE19E02146284602F03EFD8C
:1030200018B1284602F0C2FE10E0204602F0BEFEB3
:103030002C4610E02946204603F086F800280AD0E6
:103040001AA3C7223FA135A0FEF774FE2046BDE8B3
:10305000FE4F02F0ABBE65683146204602F02AFA08
:1030600078B96068D9F80010C16039690161002140
:1030700029706980FF22027241810120FF2301E053
:103080000DE007E0CDE90108009100224946204605
:1030900000F03AFB2046BDE8FE4F02F087BE204616
:1030A000BDE8FE4F02F082BEF44C00202E2E2F4DC4
:1030B0006964646C6577617265732F5468697264C2
:1030C0005F50617274792F4C7749502F7372632F60
:1030D000636F72652F697076342F69636D702E632C
:1030E0000000000069636D705F696E7075743A204E
:1030F0006D6F76696E6720722D3E7061796C6F61BD
:103100006420746F2069636D702068656164657206
:10311000206661696C65640A000000004173736594
:103120007274696F6E2022257322206661696C6556
:1031300064206174206C696E6520256420696E20AE
:1031400025730A0069636D705F696E7075743A204B
:10315000726573746F72696E67206F726967696EEA
:10316000616C20702D3E7061796C6F6164206661C6
:10317000696C65640A0000002DE9FF470646884631
:1031800091464FF420722421222002F0FFF90546D7
:10319000280030D06889242806D218A34FF4B472CE
:1031A00024A12FA0FEF7C6FD77686C6884F8008024
:1031B00084F801904FF00008A4F80480A4F8068079
:1031C0006868716808301C22FDF740F8F8680390C1
:1031D00003A800F093FC58B1A4F802800121CDE9C6
:1031E00000810290FF2303AA0021284600F08CFAF8
:1031F000284602F0DBFDBDE8FF8700002E2E2F4D94
:103200006964646C6577617265732F546869726470
:103210005F50617274792F4C7749502F7372632F0E
:10322000636F72652F697076342F69636D702E63DA
:1032300000000000636865636B2074686174206639
:103240006972737420706275662063616E20686FA6
:103250006C642069636D70206D65737361676500D0
:10326000417373657274696F6E2022257322206624
:1032700061696C6564206174206C696E65202564E9
:1032800020696E2025730A000A460B21FFF774BFE0
:1032900008B50090421C07D0020005D091F82D20FF
:1032A000920703D4002008BD012008BD4A6882426D
:1032B00001D1002008BD896800EA01030A40934259
:1032C00002D10143491C01D0002008BD012008BDE6
:1032D0002DE9F74F88B0044600270998808C1438F0
:1032E000C11700EB5170C0F3CF0005901425606842
:1032F00007900798BE1F017801F00F01052903D040
:1033000030460BB0BDE8F08F6189142908D260A364
:103310004FF43F726DA174A0FEF70CFD3046F0E74C
:10332000C08801F08FF8C0F30C01039100F4005045
:103330000290208914381FFA80F8A2E005984FF611
:10334000FF7101EAC000404500D9404604904FF4A7
:10335000207214210E2002F019F982465FEA0A0059
:1033600063D0BAF80A00142806D249A34FF4497270
:1033700067A15DA0FEF7DEFC1422DAF804000799CD
:10338000FCF764FFDAF804000690049E34E06089DC
:10339000411B8FB2A84206D23DA340F22D3264A158
:1033A00051A0FEF7C7FCBE4200D237467FB300F003
:1033B000D5FB81465FEA09002DD060684B46284462
:1033C000CDE9000741223946002002F057FA834632
:1033D000BBF1000F23D0204602F070FEC9F8144064
:1033E0005748C9F810005946504602F063FAF01BDE
:1033F00086B20EB100252468002EC8D1E81985B226
:103400000998808C1438404512DB012111E0FFE758
:1034100000252468F0E7504602F0C8FC05E0484665
:1034200000F0A0FB504602F0C1FC4FF0FF3068E70F
:1034300000210398C0F30C0009B1029909B140F4CE
:10344000005000F0FFFF0699C8800498143080B245
:1034500000F0F8FF069948800698002141810998FC
:1034600051460A9A43699847504602F09FFC0498D7
:10347000A8EB00001FFA80F805990398084480B271
:103480000390B8F1000F7FF459AF002039E7000036
:103490002E2E2F4D6964646C6577617265732F54AD
:1034A000686972645F50617274792F4C7749502F4C
:1034B0007372632F636F72652F697076342F697032
:1034C000345F667261672E63000000006970345FCC
:1034D0006672616728293A207062756620746F6F82
:1034E0002073686F72740000417373657274696F42
:1034F0006E2022257322206661696C6564206174E8
:10350000206C696E6520256420696E2025730A0091
:1035100074686973206E65656473206120706275DC
:103520006620696E206F6E65207069656365210095
:10353000702D3E6C656E203E3D20706F666600000B
:10354000CD4100082DE9F04707460E467D6804216D
:103550002878B1EB101F05D0384602F027FC002078
:10356000BDE8F08700074FEA9068688800F06AFFBE
:1035700004463889A04203D92146384602F004FDAA
:103580007889404505D33889A04202D3B8F1140F99
:1035900004D2384602F00AFC0020E1E7DFF834915B
:1035A0002869C9F81400E968C9F81010C0F30310BD
:1035B0000E2805D0304600F091F858B134461AE094
:1035C00096F82D00C00703D0706808B1344612E0A9
:1035D000002410E0002499F814007F280BD03E4806
:1035E000046806E0B44203D0204600F077F810B932
:1035F0002468002CF6D13146D9F81000FFF748FEB8
:1036000068BB99F81000C0F303100E2827D05CB3F4
:10361000E88830F0C00005D0384600F045F907468C
:103620003FB37D68C9F80040C9F80460C9F8085084
:1036300028780007800EA9F80C004146384602F0B1
:1036400083FD687A012820D0062819D0112812D0CD
:103650002146D9F81400FFF71BFED8B129E03846FF
:1036600002F0A4FB00207BE7384602F09FFB00201D
:1036700076E7002074E73146384607F07DFF1BE00F
:103680003146384603F086FE16E031463846FFF7ED
:103690006BFC11E099F81400C0F303100E2808D059
:1036A0000FFA88F1384602F051FC02213846FFF744
:1036B00056FC384602F07AFB0020C9F80000C9F831
:1036C0000400C9F80800A9F80C00C9F81000C9F8EE
:1036D000140045E7F44C00207C00002010B590F861
:1036E0002D10C9070CD0416851B1064A52698A426F
:1036F00004D001461046FFF7CBFD08B1012010BDF4
:10370000002010BDF44C0020FEB5DDE908670A9CDE
:10371000002A04D00D0001D00D6805B9211DCDE9A6
:103720000067029400F002F8FEBD00002DE9F84F9A
:10373000DDE90AABDDF830800546894616461F46AE
:10374000A87B012806D030A34FF455723BA13EA0C0
:10375000FEF7F0FA6FF00104002E38D0142128464D
:1037600001F0A8FE10B12046BDE8F88F6C686889AA
:10377000142806D224A34FF462723DA132A0FEF7B2
:10378000D9FA277284F809B030682061452020708A
:1037900084F801A0288900F055FE60804FF0000AEF
:1037A000A4F806A03E4F388800F04CFEA080388870
:1037B000401C3880B9F1000F05D0D9F80000E06056
:1037C000A4F80AA00CE037480068E060F8E76889D0
:1037D000142801D22046C7E76868006900906E4649
:1037E000B8F8240040B12989814205D932464146C2
:1037F0002846FFF76DFDB7E7D8F814303246294662
:1038000040469847B0E700002E2E2F4D6964646C47
:103810006577617265732F54686972645F50617275
:1038200074792F4C7749502F7372632F636F7265D1
:103830002F697076342F6970342E6300702D3E72BC
:103840006566203D3D203100417373657274696F78
:103850006E2022257322206661696C656420617484
:10386000206C696E6520256420696E2025730A002E
:10387000636865636B207468617420666972737431
:1038800020706275662063616E20686F6C642073BF
:1038900074727563742069705F6864720000000060
:1038A000E200002004BA00082DE9F0478246DAF869
:1038B0000450287800F00F00052873D1E88800F044
:1038C000C1FDC0044FEA1048688800F0BBFD2978AC
:1038D0000907890E814265D8401A1FFA80F95046BF
:1038E00002F082F806465C4F388830440A2809D92D
:1038F0003146284600F010FC002853D03888304468
:103900000A28E8D87C680CE06069E968884207D139
:10391000A0692969884203D1A089A988884202D078
:103920002468002CF0D12CB1E88800F08BFDC00495
:1039300008D012E03146284600F0F4FA0446200090
:10394000DBD00AE0E08900F07DFDC00405D0142240
:10395000294604F10800FCF779FCA87940F34015EA
:103960006D1C45B108EB090080B240455FD34FF6AE
:10397000EB7188425BD82A465146204600F03CF95C
:10398000411C54D039883144398035B108EB0901E4
:10399000A183A17F41F00101A177012803D000207C
:1039A000BDE8F08753E0A08B14301FFA80F8606800
:1039B00046683568142204F108013046FCF746FCDD
:1039C000404600F03FFD70800020F0807081D4F808
:1039D000048009E06E681421284602F0B5FB2946F0
:1039E000404601F067FF3568002DF3D179688C42BD
:1039F00005D1002105E00868A04202D00146002957
:103A0000F9D1204600F030FA404601F0EDFF0446BF
:103A10003888A04206D211A340F29B221EA125A005
:103A2000FEF788F93888001B38804046B8E76068A0
:103A300068B97868844206D008A340F2AB2227A177
:103A40001CA0FEF777F90021204600F00DFA504641
:103A500002F0ACF90020A3E7E40000202E2E2F4D49
:103A60006964646C6577617265732F546869726408
:103A70005F50617274792F4C7749502F7372632FA6
:103A8000636F72652F697076342F6970345F667268
:103A900061672E630000000069705F726561737377
:103AA0005F70627566636F756E74203E3D20636C57
:103AB000656E0000417373657274696F6E20222514
:103AC0007322206661696C6564206174206C696E84
:103AD0006520256420696E2025730A006E6F7420AE
:103AE0006669727374616C74686F756768206A7553
:103AF000737420656E7175657565640070B50646F2
:103B00001448006814E090F82D10CA070FD04A0737
:103B10000DD543685BB184683268234002EA04052E
:103B20009D4216D0890702D4C1688A4211D000682C
:103B30000028E8D10848006850B190F82D10CA0755
:103B400006D0490704D5416811B131787F2900D1E9
:103B5000002070BD7C00002080000020052001F0C6
:103B60007BB8000010B50446002C06D106A34FF424
:103B7000317214A116A0FEF7DDF82146BDE8104011
:103B8000052000F0A9BF00002E2E2F4D6964646C43
:103B90006577617265732F54686972645F506172F2
:103BA00074792F4C7749502F7372632F636F72654E
:103BB0002F697076342F6970345F667261672E6387
:103BC000000000007020213D204E554C4C000000AC
:103BD000417373657274696F6E20222573222066AB
:103BE00061696C6564206174206C696E6520256470
:103BF00020696E2025730A002DE9F05F074688468C
:103C0000924600250126D8F80440608800F01AFC8E
:103C100021780907890E4FF0FF39814202D94846C1
:103C2000BDE8F09FA0EB010BE08800F00BFCC004A6
:103C3000010CD8F8044000202060A18001EB0B00AB
:103C40001FFA80FCA4F806C08C4501D24846E7E77D
:103C500078682BE043689A88914218D2206075B149
:103C6000EA88914202D399888C4501D94846D7E722
:103C7000C5F80080A1888A421AD0002618E09988E9
:103C80008C4501D94846CBE7C7F8048010E001D144
:103C90004846C5E7D888814201D24846C0E71DB1F1
:103CA000E888904200D0002618681D460028D1D12F
:103CB00000281ED195B1E888A188884206D92EA394
:103CC0004FF4DB723BA143A0FEF734F8C5F8008047
:103CD000E888A18888420CD000260AE0786830B1D4
:103CE00025A34FF4DF7245A13AA0FEF723F8C7F8E9
:103CF0000480BAF1000F02D1B87FC00739D0002E7E
:103D000032D07A6812B15068808808B100262BE062
:103D10002146206808E04468C888A188884201D00C
:103D2000002603E0206821460028F4D1002E1BD095
:103D300032B911A340F2DF123EA126A0FDF7FAFF2F
:103D400078684068A04206D10BA34FF4F07239A105
:103D500020A0FDF7EFFF206830B107A34FF4F17208
:103D600038A11CA0FDF7E6FF0EB1012058E70020A6
:103D700056E7002054E700002E2E2F4D6964646C36
:103D80006577617265732F54686972645F50617200
:103D900074792F4C7749502F7372632F636F72655C
:103DA0002F697076342F6970345F667261672E6395
:103DB00000000000636865636B20667261676D6573
:103DC0006E747320646F6E2774206F7665726C61F9
:103DD00070000000417373657274696F6E20222554
:103DE0007322206661696C6564206174206C696E61
:103DF0006520256420696E2025730A006E6F20708F
:103E0000726576696F757320667261676D656E7431
:103E10002C2074686973206D75737420626520743A
:103E2000686520666972737420667261676D656E7D
:103E30007421000073616E69747920636865636B37
:103E40000000000076616C69646174655F64617490
:103E5000616772616D3A6E6578745F706275662134
:103E60003D4E554C4C00000070B504460D460C48C4
:103E70004168A14202D1216841600AE0002D06D1CB
:103E800008A340F2451216A11CA0FDF753FF2068BD
:103E900028602146BDE87040042000F01DBE0000EF
:103EA000E40000202E2E2F4D6964646C65776172EA
:103EB00065732F54686972645F50617274792F4C16
:103EC0007749502F7372632F636F72652F69707615
:103ED000342F6970345F667261672E6300000000E2
:103EE00073616E69747920636865636B206C696EB9
:103EF0006B6564206C697374000000004173736526
:103F00007274696F6E2022257322206661696C6568
:103F100064206174206C696E6520256420696E20C0
:103F200025730A0070B506460D46042000F094FE85
:103F3000044654B92946304600F0EEF8A84203DBA7
:103F4000042000F089FE04468CB120212046FCF7B5
:103F5000A4F90F20E07707484168216044601422EB
:103F6000314604F10800FCF771F9204670BD0020CD
:103F700070BD0000E40000202DE9F04706460F4622
:103F80000025B74205D131A3AB223FA141A0FDF7E7
:103F9000D1FE002F08D03868B04205D02BA3AD2247
:103FA00046A13CA0FDF7C6FED6F80480D8F8040070
:103FB0004FF48039818800291CD100687060142278
:103FC00006F10801D8F80400FCF740F90121404649
:103FD000FFF75AF9404601F007FD04464C4505D36A
:103FE0001AA3BC223AA12BA0FDF7A4FEA5B240461D
:103FF00001F0DCFE746812E06068A0460468404688
:1040000001F0F2FC05444D4505D310A3CC2230A1AC
:1040100020A0FDF78FFEADB2404601F0C7FE002C98
:10402000EAD139463046FFF71FFF314C2088A842BD
:1040300005D206A3D2222FA116A0FDF77BFE208871
:10404000401B20802846BDE8F08700002E2E2F4D13
:104050006964646C6577617265732F546869726412
:104060005F50617274792F4C7749502F7372632FB0
:10407000636F72652F697076342F6970345F667272
:1040800061672E63000000007072657620213D207C
:1040900069707200417373657274696F6E202225B6
:1040A0007322206661696C6564206174206C696E9E
:1040B0006520256420696E2025730A00707265767C
:1040C0002D3E6E657874203D3D20697072000000C1
:1040D00070627566735F6672656564202B20636C21
:1040E000656E203C3D203078666666660000000004
:1040F000E400002069705F72656173735F706275C0
:1041000066636F756E74203E3D2070627566735FE6
:1041100066726565640000002DE9F04705460F46AC
:104120000026DFF878800020002100230024D8F842
:10413000042022E0D2F814C0D5F80C90CC450BD165
:10414000D2F818C0D5F81090CC4505D1B2F80CC003
:10415000B5F80490CC4509D0641CE0B192F81FC0BA
:1041600090F81F90CC4501D810460B46D2F800C0FD
:10417000BCF1000F00D011466246002ADAD118B116
:104180001946FFF7F9FE0644BE4201DA012CCADCEB
:104190003046BDE8F08710460B46E7E7E400002014
:1041A00070B50025084844680BE0E07F20B1401E50
:1041B000E0772546246804E0204624682946FFF776
:1041C000DBFE002CF1D170BDE400002010B50446E8
:1041D000002C06D107A340F2CE2215A117A0FDF7AF
:1041E000A9FD606908B101F0E1FD2046BDE810407D
:1041F000FFF7B8BC2E2E2F4D6964646C6577617231
:1042000065732F54686972645F50617274792F4CC2
:104210007749502F7372632F636F72652F697076C1
:10422000342F6970345F667261672E63000000008E
:1042300070637220213D204E554C4C0041737365D4
:104240007274696F6E2022257322206661696C6525
:1042500064206174206C696E6520256420696E207D
:1042600025730A002DE9FC410446364D3448286088
:1042700000268DF8006080208DF80100E1208DF887
:1042800002008DF803608DF804608DF80560C5F8B4
:1042900004D04FF40000A860A5F1A000E860A038A9
:1042A00028614FF4C06068612846FCF7E1FB0746CF
:1042B000382105F1B000FBF7F0FF05F1B000212136
:1042C00001604FF44001416106611F4800F0AEFCFF
:1042D00006202434207268680078A07068684078EE
:1042E000E0706868807820716868C078607168687C
:1042F0000079A07168684079E07140F2DC5020805C
:10430000607A40F00A006072243C104905F1E80030
:10431000FDF7BEFB05F1E800FDF752FB38B1204682
:1043200000F0BEFF204600F063FFBDE8FC8117B13E
:10433000FCF706FBF9E72046FEF7DCFCF5E700009A
:1043400000800240B84B0020E0B8000804000020C4
:1043500008B50020009005480078002803D1694680
:104360000348FCF74DFC009808BD00000000002049
:10437000B84B0020F0B58DB00E4600250027302147
:1043800001A8FBF78AFF302101A8FBF786FF34461E
:1043900001A81BE0042D03D36FF00B000DB0F0BD9E
:1043A00005EB4502616840F8221000EB820261894A
:1043B00051602DB16B1E03EB430100EB81018A605C
:1043C000216809B9002191606D1C2468002CE1D19D
:1043D000054932894A6088604E631422A1F1B00019
:1043E000FCF7AEFD3846D9E7684C002010B504460E
:1043F0006068804702F016F80A4A216852688B18F4
:104400001A1AB2F1004F06D322460844BDE8104004
:10441000054902F06BB82246BDE810400249184633
:1044200002F064B8CC000020ED430008010600F45F
:104430007F4241EA022100F47F0241EA122141EA6F
:10444000106070470106090C41EA1020704710B552
:1044500000F0DAF800F0DCFB00F02CFE07F080F84A
:1044600002F08CFFBDE8104002F0C2B8FCF7F4FE89
:10447000FDF70AFCFDF724FBFDF762FBFDF7F0FBFF
:10448000FCE7000070B5002841D0810708D0BDE8E6
:1044900070401FA340F2732229A132A0FDF74ABC4D
:1044A000A0F10804394D29688C4203D369680C30A7
:1044B000884208D9BDE8704015A340F27F2234A19C
:1044C00028A0FDF737BC207978B1204600F0B8F875
:1044D000002813D000202071A868844200D2AC606C
:1044E0002046BDE8704001F09FBEBDE8704008A3C3
:1044F0004FF423722DA11BA0FDF71CBCBDE870403A
:1045000003A340F2952233A116A0FDF713BC70BDA2
:104510002E2E2F4D6964646C6577617265732F541C
:10452000686972645F50617274792F4C7749502FBB
:104530007372632F636F72652F6D656D2E6300005C
:104540006D656D5F667265653A2073616E69747939
:1045500020636865636B20616C69676E6D656E745E
:1045600000000000417373657274696F6E2022252C
:104570007322206661696C6564206174206C696EC9
:104580006520256420696E2025730A0048000020FC
:104590006D656D5F667265653A20696C6C65676113
:1045A0006C206D656D6F7279000000006D656D5F48
:1045B000667265653A20696C6C6567616C206D6533
:1045C0006D6F72793A20646F75626C6520667265F2
:1045D000650000006D656D5F667265653A20696C07
:1045E0006C6567616C206D656D6F72793A206E6FD6
:1045F0006E2D6C696E6B65643A20646F75626C65D4
:10460000206672656500000070B50B480B4C20F009
:10461000030020604FF4C8650580002141800171CE
:10462000284601F0D1FE60600121017105804580BE
:104630002068A06070BD00000F4D002048000020E1
:1046400070B50446204600F049F90546208801F07F
:10465000BBFE0646608801F0B7FE014620884FF495
:10466000C86290420ED8608890420BD8A84202D00F
:104670000888A84206D105484068864204D0708860
:10468000A84201D0002070BD012070BD480000206C
:104690002DE9F04700280FD0C51C4FF6FC710D40E6
:1046A0000C2D00D20C254FF4C8694D4501D8854228
:1046B00004D20020BDE8F0870020FBE7DFF80C8182
:1046C000D8F8080000F00AF90646C5F5C86778E092
:1046D000304601F079FE0446207900286DD120880B
:1046E000801B0838A84268D3208805F11401801B7C
:1046F00008384FF0010A88421DD37019083087B27C
:104700004F4506D132A340F287323DA141A0FDF7CB
:1047100011FB384601F058FE00210171218801800B
:104720004680278084F804A00088484505D001F021
:104730004BFE478001E084F804A0D8F808008442CA
:1047400003D017E0008801F03FFE017919B1D8F8D5
:1047500004108842F6D1C8F80800D8F8041088423E
:1047600008D0007930B11AA340F2B53233A129A0A4
:10477000FDF7E0FA6019D8F804100830884206D92D
:1047800013A340F2B93234A122A0FDF7D3FA04F109
:104790000805A80706D00EA340F2BB323AA11DA01F
:1047A000FDF7C8FAA00706D009A340F2BD3242A126
:1047B00018A0FDF7BFFA28467CE7304601F004FE5A
:1047C0000688B74284D8002074E700004800002023
:1047D0002E2E2F4D6964646C6577617265732F545A
:1047E000686972645F50617274792F4C7749502FF9
:1047F0007372632F636F72652F6D656D2E6300009A
:10480000696E76616C6964206E657874207074726C
:1048100000000000417373657274696F6E20222579
:104820007322206661696C6564206174206C696E16
:104830006520256420696E2025730A006D656D5F13
:104840006D616C6C6F633A20216C667265652D3EFC
:1048500075736564000000006D656D5F6D616C6C63
:104860006F633A20616C6C6F6361746564206D6581
:104870006D6F7279206E6F742061626F7665207241
:10488000616D5F656E642E006D656D5F6D616C6C52
:104890006F633A20616C6C6F6361746564206D6551
:1048A0006D6F72792070726F7065726C7920616CB7
:1048B00069676E65642E00006D656D5F6D616C6C7F
:1048C0006F633A2073616E69747920636865636B06
:1048D00020616C69676E6D656E740000024909881D
:1048E000401A80B270470000480000202DE9F05FB8
:1048F0000746CC1C4FF6FC7004400C2C00D20C2454
:104900004FF4C86A544501D88C4202D20020BDE859
:10491000F09FDFF81C91D9F80000874203D3D9F843
:104920000400874206D343A340F2D1224DA153A0F5
:10493000FDF700FAD9F80000874203D3D9F8040044
:10494000874201D33846E2E7A7F108052846FFF77A
:10495000C5FF06462988881B08381FFA80FB5C457E
:1049600006D934A34FF439724EA144A0FDF7E2F901
:104970005C4502D94FF00000C9E701D13846C6E7CF
:10498000288801F021FD804698F80400002827D0EF
:1049900004F11400584521D83019083084B2288811
:1049A000504506D123A340F2163246A133A0FDF7AD
:1049B000C1F9204601F008FDD9F80810884201D25B
:1049C000C9F80800002101712988018046802C80E7
:1049D0000088504502D001F0F7FC4480384696E745
:1049E0002888504506D113A340F2F52235A123A013
:1049F000FDF7A0F9B8F800B03019083084B2D9F842
:104A00000800404504D1204601F0DEFCC9F808004A
:104A1000204601F0D9FC00210171A0F800B04680C9
:104A20002C8000885045D9D001F0CEFC4480D5E7D9
:104A3000480000202E2E2F4D6964646C65776172EA
:104A400065732F54686972645F50617274792F4C7A
:104A50007749502F7372632F636F72652F6D656D89
:104A60002E6300006D656D5F7472696D3A206C6530
:104A700067616C206D656D6F7279000041737365BD
:104A80007274696F6E2022257322206661696C65DD
:104A900064206174206C696E6520256420696E2035
:104AA00025730A006D656D5F7472696D2063616EB8
:104AB000206F6E6C7920736872696E6B206D656D06
:104AC0006F727900696E76616C6964206E657874C6
:104AD0002070747200000000092806D307A34FF469
:104AE000D57212A118A0FDF725B9002904D0204ADB
:104AF00052F82000FDF72ABA704700002E2E2F4DE5
:104B00006964646C6577617265732F546869726457
:104B10005F50617274792F4C7749502F7372632FF5
:104B2000636F72652F6D656D702E63006D656D70BE
:104B30005F667265653A2074797065203C204D454A
:104B40004D505F4D41580000417373657274696F39
:104B50006E2022257322206661696C656420617471
:104B6000206C696E6520256420696E2025730A001B
:104B700074B9000870B504460D46002C06D109A38F
:104B800040F2951213A118A0FDF7D4F8002C07D01D
:104B9000002D05D029462046BDE87040FDF7D6B966
:104BA00070BD00002E2E2F4D6964646C65776172B4
:104BB00065732F54686972645F50617274792F4C09
:104BC0007749502F7372632F636F72652F6D656D18
:104BD000702E6300696E76616C696420706F6F6C13
:104BE0002064657363000000417373657274696FBC
:104BF0006E2022257322206661696C6564206174D1
:104C0000206C696E6520256420696E2025730A007A
:104C100030B50024044D55F8240000F007F8641C5A
:104C2000A4B2092CF7D330BD74B900088268002102
:104C300011604168C91C21F00301002207E083686C
:104C40001B680B608368196003881944521C4388F1
:104C50009342F4DC7047000010B5092808D308A37C
:104C600040F2571212A11AA0FDF764F8002010BDFF
:104C7000214951F82000BDE81040FDF7B5B900000A
:104C80002E2E2F4D6964646C6577617265732F54A5
:104C9000686972645F50617274792F4C7749502F44
:104CA0007372632F636F72652F6D656D702E630075
:104CB0006D656D705F6D616C6C6F633A20747970B7
:104CC00065203C204D454D505F4D4158000000008F
:104CD000417373657274696F6E202225732220669A
:104CE00061696C6564206174206C696E652025645F
:104CF00020696E2025730A0074B9000810B50446B7
:104D0000002C06D107A34FF49E7212A116A0FDF746
:104D100011F824B12046BDE81040FDF765B9002028
:104D200010BD00002E2E2F4D6964646C6577617292
:104D300065732F54686972645F50617274792F4C87
:104D40007749502F7372632F636F72652F6D656D96
:104D5000702E6300696E76616C696420706F6F6C91
:104D60002064657363000000417373657274696F3A
:104D70006E2022257322206661696C65642061744F
:104D8000206C696E6520256420696E2025730A00F9
:104D90002DE9F0470446DDE908650A98002C04D0A7
:104DA000002D0CD0002913D013E039A340F22712B4
:104DB00044A14BA0FCF7BEFF0020BDE8F08734A360
:104DC0004FF4947250A146A0FCF7B4FF0020F4E722
:104DD000564902B9554A03B9544B4FF00008C4F87C
:104DE0000480C4F80880C4F80C80514F6761A4F8AF
:104DF000248084F82D80C4F81C8026624D4F3E78B4
:104E000084F830602061204600F0BAF92046A847B7
:104E100008B10020D1E794F83000FF2801D184F8D0
:104E2000308000267D6840F28B1940F28D1A1DE01B
:104E3000A54205D116A34A463FA129A0FCF77AFF57
:104E4000761CFF2E05DD12A3524640A124A0FCF7DC
:104E500071FF95F8300094F83010884205D194F82D
:104E60003000401C84F8300002E02D68002DDFD1B6
:104E7000002DD0D194F83000FE2806D0401C3870A8
:104E8000786820607C60204697E787F80080F7E725
:104E90002E2E2F4D6964646C6577617265732F5493
:104EA000686972645F50617274792F4C7749502F32
:104EB0007372632F636F72652F6E657469662E63FC
:104EC000000000006E657469665F6164643A206981
:104ED0006E76616C6964206E65746966000000001E
:104EE000417373657274696F6E2022257322206688
:104EF00061696C6564206174206C696E652025644D
:104F000020696E2025730A006E657469665F6164AE
:104F1000643A204E6F20696E69742066756E637402
:104F2000696F6E20676976656E00000004BA00083C
:104F300079510008780000206E6574696620616C04
:104F4000726561647920616464656400746F6F20C8
:104F50006D616E79206E65746966732C206D617861
:104F60002E20737570706F72746564206E756D623B
:104F700065722069732032353500000070B5044633
:104F80000D462946204602F0F9FF29462046BDE895
:104F9000704006F08BBC0A68C3689A4204D001B91D
:104FA0000022C2600120704700207047F8B5054616
:104FB0000C461646002C06D113A340F2CB121FA1BB
:104FC00022A0FCF7B7FE36B90FA34FF4E6721BA17F
:104FD0001EA0FCF7AFFE20686968884212D02068E6
:104FE00000906868306069463046FFF7C7FF3CB103
:104FF000206868600121284600F05EF80120F8BDB5
:105000000020F6E70020F8BD2E2E2F4D6964646C59
:105010006577617265732F54686972645F5061725D
:1050200074792F4C7749502F7372632F636F7265B9
:105030002F6E657469662E6300000000696E7661EC
:105040006C696420706F696E74657200417373657A
:105050007274696F6E2022257322206661696C6507
:1050600064206174206C696E6520256420696E205F
:1050700025730A000A6883689A4204D001B90022A5
:10508000826001207047002070470000014600291F
:105090000BD00748406806E090F83020521CD2B28E
:1050A0008A4203D000680028F6D100207047000033
:1050B000780000207047000070B504460D46002CB3
:1050C00006D10DA340F26D3218A121A0FCF732FEEB
:1050D00094F82D0042070ED5C1070CD0E9070AD07D
:1050E0006168002907D0000705D5211D2046BDE8CD
:1050F0007040FDF7D7BC70BD2E2E2F4D6964646CD7
:105100006577617265732F54686972645F5061726C
:1051100074792F4C7749502F7372632F636F7265C8
:105120002F6E657469662E63000000006E657469F9
:10513000665F69737375655F7265706F7274733AD9
:1051400020696E76616C6964206E65746966000022
:10515000417373657274696F6E2022257322206615
:1051600061696C6564206174206C696E65202564DA
:1051700020696E2025730A006FF00B007047000055
:105180002DE9F84F82460C4616461F464FF00008A0
:10519000C146002C00D1124C06B9114E07B9104F70
:1051A000DCB12068C8B1002525B16A4621465046C9
:1051B000FFF7FCFE424631465046FFF75BFF4A468A
:1051C00039465046FFF7E7FE002D04D16A462146D6
:1051D0005046FFF7EBFEBDE8F88F0125E4E700003D
:1051E00004BA000801498860704700007800002078
:1051F00000280BD090F82D10CA070ED001F0FE0148
:1052000080F82D10090708D5FCF740BF03A340F232
:105210009B320FA116A0FCF78DBD70472E2E2F4D8F
:105220006964646C6577617265732F546869726430
:105230005F50617274792F4C7749502F7372632FCE
:10524000636F72652F6E657469662E6300000000DF
:105250006E657469665F7365745F646F776E3A201C
:10526000696E76616C6964206E6574696600000021
:10527000417373657274696F6E20222573222066F4
:1052800061696C6564206174206C696E65202564B9
:1052900020696E2025730A00002800D0C161704784
:1052A00000280BD090F82D104A070ED501F0FB0115
:1052B00080F82D10C169002907D0084703A340F2E8
:1052C00006420FA117A0FCF735BD70472E2E2F4DBB
:1052D0006964646C6577617265732F546869726480
:1052E0005F50617274792F4C7749502F7372632F1E
:1052F000636F72652F6E657469662E63000000002F
:105300006E657469665F7365745F6C696E6B5F640C
:105310006F776E3A20696E76616C6964206E657491
:1053200069660000417373657274696F6E2022258F
:105330007322206661696C6564206174206C696EFB
:105340006520256420696E2025730A0010B5044687
:10535000002C12D094F82D00410717D440F004001F
:1053600084F82D0003212046FFF7A6FEE1690029FD
:105370000CD02046BDE810400847BDE8104004A30B
:105380004FF478720FA118A0FCF7D4BC10BD000038
:105390002E2E2F4D6964646C6577617265732F548E
:1053A000686972645F50617274792F4C7749502F2D
:1053B0007372632F636F72652F6E657469662E63F7
:1053C000000000006E657469665F7365745F6C69E8
:1053D0006E6B5F75703A20696E76616C6964206EE1
:1053E0006574696600000000417373657274696FCB
:1053F0006E2022257322206661696C6564206174C9
:10540000206C696E6520256420696E2025730A0072
:1054100000280AD090F82D10CA070DD141F00101E3
:1054200080F82D100321FFF747BE04A34FF45472F8
:105430000FA116A0FCF77EBC704700002E2E2F4D4A
:105440006964646C6577617265732F54686972640E
:105450005F50617274792F4C7749502F7372632FAC
:10546000636F72652F6E657469662E6300000000BD
:105470006E657469665F7365745F75703A20696EF6
:1054800076616C6964206E6574696600417373654A
:105490007274696F6E2022257322206661696C65C3
:1054A00064206174206C696E6520256420696E201B
:1054B00025730A00002200F001B8000070B5044610
:1054C0000D461646002C06D117A340F2DF1222A18A
:1054D00024A0FCF72FFC14B1B5F5803F01D30120C7
:1054E00070BD3DB1A8B2218901448BB2834203D281
:1054F000012070BD002070BD217B090607D56168C1
:10550000491B04F11002914204D2012070BD46B142
:105510006168491B616061890844608123810020C2
:1055200070BD012070BD00002E2E2F4D6964646C8B
:105530006577617265732F54686972645F50617238
:1055400074792F4C7749502F7372632F636F726594
:105550002F706275662E63007020213D204E554CE1
:105560004C000000417373657274696F6E202225D0
:105570007322206661696C6564206174206C696EB9
:105580006520256420696E2025730A002DE9FC5FE3
:1055900007460D469146B9F1010F12D0B9F1410FFE
:1055A0000FD0B9F5C17F13D0B9F5207F58D045A3EE
:1055B00040F227124FA156A0FCF7BCFB0020BDE82B
:1055C000FC9F4A462946002000F0FEF8064674E09B
:1055D0000026B2460820FFF73FFB0446200035D0E6
:1055E00007F1030B2BF00300C0F501701FFA80F8E0
:1055F000A84500D9A8460020CDE90090E019133055
:1056000020F0030143462A46204600F0A9FC2079F9
:10561000800706D02BA34FF4807247A13CA0FCF773
:1056200089FB8120B0EB9B0F05D1420025A34EA141
:1056300037A0FCF77FFB8EB1CAF80040A246A5EB6D
:10564000080085B20027002DC4D136E000F096FC9A
:1056500016B1304600F0AAFB0020B0E72646EDE781
:10566000F81C20F00301E81C20F00302881880B227
:1056700000F1100189B2824201D88A4201D900208A
:105680009DE70846FFF704F80646300017D00020D3
:10569000CDE90090F019133020F003012B462A4683
:1056A000304600F05DFC3079800706D005A34FF44A
:1056B00091723AA116A0FCF73DFB30467FE700202F
:1056C0007DE700002E2E2F4D6964646C6577617252
:1056D00065732F54686972645F50617274792F4CDE
:1056E0007749502F7372632F636F72652F706275E5
:1056F000662E6300706275665F616C6C6F633A2042
:105700006572726F6E656F757320747970650000D5
:10571000417373657274696F6E202225732220664F
:1057200061696C6564206174206C696E6520256414
:1057300020696E2025730A00706275665F616C6C6B
:105740006F633A207062756620712D3E7061796CCE
:105750006F61642070726F7065726C7920616C6922
:10576000676E656400000000504255465F504F4F21
:105770004C5F42554653495A45206D7573742062FB
:105780006520626967676572207468616E204D45A7
:105790004D5F414C49474E4D454E54007062756611
:1057A0005F616C6C6F633A20706275662D3E70614C
:1057B000796C6F61642070726F7065726C792061B2
:1057C0006C69676E656400002DE9FC4107460E4672
:1057D0001446412C08D0012C06D00DA34FF4A5721D
:1057E00017A11CA0FCF7A6FA0720FFF735FA05461B
:1057F0005DB10020CDE900403346324639462846A7
:1058000000F0AEFB2846BDE8FC810020FBE700006D
:105810002E2E2F4D6964646C6577617265732F5409
:10582000686972645F50617274792F4C7749502FA8
:105830007372632F636F72652F706275662E6300DB
:10584000696E76616C696420706275665F747970E8
:1058500065000000417373657274696F6E202225C4
:105860007322206661696C6564206174206C696EC6
:105870006520256420696E2025730A007CB50D46DD
:105880001C46DDE90613C01C20F0030046199E42A9
:1058900001D900207CBD09B1014400E000210220B3
:1058A000CDE900202B462A46204600F059FB204631
:1058B0007CBD000070B50D46002802D00DB1044635
:1058C0000DE0BDE8704014A340F259321EA12CA097
:1058D000FCF730BA21892A891144218104462068C5
:1058E0000028F7D120896189884206D00AA340F2B6
:1058F00062322DA122A0FCF71DFA206830B106A368
:1059000040F2633234A11EA0FCF714FA20892989E1
:1059100008442081256070BD2E2E2F4D6964646C73
:105920006577617265732F54686972645F50617244
:1059300074792F4C7749502F7372632F636F7265A0
:105940002F706275662E6300286820213D204E5519
:105950004C4C2920262620287420213D204E554CD1
:105960004C29202870726F6772616D6D65722076A8
:10597000696F6C6174657320415049290000000013
:10598000417373657274696F6E20222573222066DD
:1059900061696C6564206174206C696E65202564A2
:1059A00020696E2025730A00702D3E746F745F6C41
:1059B000656E203D3D20702D3E6C656E20286F6623
:1059C000206C617374207062756620696E20636854
:1059D00061696E2900000000702D3E6E65787420AC
:1059E0003D3D204E554C4C00002102E0491C89B23F
:1059F00000680028FAD108467047000070B50B46D1
:105A000015461A462989FFF7C1FD0446002C0DD022
:105A10002946204600F042F830B105A340F2245256
:105A20000FA114A0FCF786F9204670BD002070BDC0
:105A30002E2E2F4D6964646C6577617265732F54E7
:105A4000686972645F50617274792F4C7749502F86
:105A50007372632F636F72652F706275662E6300B9
:105A6000706275665F636F7079206661696C6564EA
:105A700000000000417373657274696F6E20222507
:105A80007322206661696C6564206174206C696EA4
:105A90006520256420696E2025730A002DE9F047F2
:105AA00005460C46002600276FF00F09002D04D094
:105AB0001CB128892189884209D235A340F2C93214
:105AC0003FA14BA0FCF736F94846BDE8F0876FF0E0
:105AD000050A68896189801BA1EB0708404500D24F
